:03000000020006F5
:03005F0002000399
:0300030002035D98
:10006200AF827E007D00E51CFC30E010AB1B8BF004
:1000720005F07401800225E0D5F0FBFEEC30E110C2
:10008200AC1B8CF005F07401800225E0D5F0FBFD7D
:10009200BF0102800ABF03028014BF052E801EEE3C
:1000A200F4FF55924EF592EF55914DF59122EEF4F3
:1000B200FF55B24EF5B2EF55B14DF5B122EEF4FF58
:1000C20055CA4EF5CAEF55C94DF5C922C030C031E7
:1000D2007530047531DCD531FDD530FAD031D030F0
:1000E20022AF827E01C007C0061200CE1200CEC22D
:1000F200B11200CED006D0077D00EE5F6004D2B10F
:100102008002C2B18E04EC2CFEC007C006C00512EC
:1001120000CED005D006D0070DBD080040DCD2B11C
:1001220022E582FEC4540FFFBF0A0050108F0574EF
:10013200302DF582C0061200E3D006800C74372FF2
:10014200F582C0061200E3D006740F5EFFBF0A00FC
:10015200500A8F0674302EF5820200E374372FF5B1
:10016200820200E3AE82AF837C107D27750800EE29
:100172004F70067582300200E379007A00C3EE9C6C
:10018200EF9D40517508018C1B8D1C8E828F83C0A0
:1001920007C006C005C004C002C001120424A88220
:1001A200743028F5821200E3D001D002D004D005C9
:1001B200D006D0078C1B8D1C8E828F83C005C00495
:1001C200C002C001120520AE82AF83D001D002D09E
:1001D20004D0058022E508601E758230C007C00683
:1001E200C005C004C002C0011200E3D001D002D099
:1001F20004D005D006D007751B0A751C008C828DB1
:1002020083C007C006C002C001120424AC82AD83C1
:10021200D001D002D006D00709B900010AC3E9947F
:1002220005EA9400500302017F2275820D1200E359
:1002320075820A0200E3AE82AF838F82C007C006D6
:10024200120123D006D0078E82020123AF827E8064
:100252007D08EE5F6014758231C007C006C00512CA
:1002620000E3D005D006D0078012758230C007C0E7
:1002720006C0051200E3D005D006D007EEC313FE78
:10028200ED14FD70CD22C2B37E007F00E5E630E0C2
:10029200070EBE00F70F80F4D2B38E828F8322AE98
:1002A20082AF83AC0A7D00C3EC9EED9F500B8C1B8A
:1002B2008D1C8E828F8302042490000022AC82ADBA
:1002C20083AEF0FFECC3950BFCED950CFDEE950DA6
:1002D200FEEF950EFFE517C39513F51BE518951470
:1002E200F51CE5199515F51DE51A9516F51E8C8276
:1002F2008D838EF0EF1204B2AC82AD83AEF0FFE5D7
:100302000FC3950BF51BE510950CF51CE511950D2A
:10031200F51DE512950EF51E8C828D838EF0EF127F
:10032200056DAC82AD83AEF0FFE5132CFCE5143D08
:10033200FDE5153EFEE5163F8C828D838EF022751B
:10034200E60075E70053E6F743E60243E78053E62B
:10035200FB53E7BF53E73F43E68022751B02751C40
:1003620001758201120062751B03751C01758203FF
:10037200120062751B05751C02758205120062D29D
:10038200B31203417582481200E37582491200E3F9
:1003920075820D1200E375820A1200E37E607F0906
:1003A200C007C0061200CED006D007EE24FFFCEF35
:1003B20034FFFD8C068D07EC4D70E512022C85B0E2
:1003C2008212024E120288AE82AF83C007C00612AA
:1003D200022CD006D0078E828F83C007C00612017E
:1003E2006612022CD006D007E4FDFCF50BF50CF5E5
:1003F2000DF50E750FD6751006F511F512F513F5FC
:1004020014F515F5167517DC751805F519F51A8E1C
:10041200828F838DF0EC1202BF12016612022C024F
:10042200039E7A10E4FBFCE58225E0F582E5833346
:10043200F583EB33FBEC33FCEB951BF5F0EC951CF1
:100442004006FCABF0438201DADD22FB7A20E4FCB9
:10045200FDFEFFE5822582F582E58333F583E5F033
:1004620033F5F0EB33FB4017DAE98042E58225826F
:10047200F582E58333F583E5F033F5F0EB33FBECFE
:1004820033FCED33FDEE33FEEF33FFEC951BED95C0
:100492001CEE951DEF951E4013EC951BFCED951C73
:1004A200FDEE951DFEEF951EFF438201DABEEB22A3
:06003500E478FFF6D8FD9F
:100013007900E94400601B7A009005C3780175A05C
:1000230000E493F2A308B8000205A0D9F4DAF2754C
:02003300A0FF2C
:1004B200AAF0FBE582851BF0A4FCADF0E583851B69
:1004C200F0A42DFDE435F0FEE582851CF0A42DFD9F
:1004D200E5F03EFEE433FFEA851BF0A42EFEE5F0D4
:1004E2003FFFE583851CF0A42EFEE5F03FFFE58289
:1004F200851DF0A42EFEE5F03FFFEB851BF0A42F37
:10050200FFEA851CF0A42FFFE583851DF0A42FFFD1
:10051200E582851EF0A42F8EF08D838C8222E51B4E
:10052200451C60467A01E51B25E0F51BE51C3340BE
:1005320012F51CE582951BE583951C40030A80E6B3
:10054200C3E51C13F51CE51B13F51BC3E582951BC4
:10055200F5F0E583951C4005F58385F082C3E51C23
:0B05620013F51CE51B13F51BDAE1226A
:10003B007800E84400600A790175A000E4F309D860
:10004B00FC7800E84400600C7900900001E4F0A318
:04005B00D8FCD9FAFA
:10056D00FBC2D530E715D2D5E4C39582F582E4956B
:10057D0083F583E495F0F5F0E49BFBE51E30E7177A
:10058D00B2D5E4C3951BF51BE4951CF51CE4951D34
:10059D00F51DE4951EF51EEB12044D30D513FBE44D
:1005AD00C39582F582E49583F583E495F0F5F0E447
:0205BD009B227F
:0D00060075811E1205BFE582600302000334
:0405BF00758200221F
:00000001FF
