:04000000020069325F
:01000B0032C2
:0100130032BA
:01001B0032B2
:0100230032AA
:01002B0032A2
:01003300329A
:01003B003292
:01004300328A
:01004B003282
:01005300327A
:01005B003272
:030063000200C5D3
:0300C200020066D3
:030066000202048F
:1000C500B20030000CD2B2C20175D7C875D6B58062
:1000D5000AC2B2D2018521D78522D632AF827E00EF
:1000E5007D00E511FC30E010AB108BF005F07401DC
:1000F500800225E0D5F0FBFEEC30E110AC108CF071
:1001050005F07401800225E0D5F0FBFDBF010280FA
:100115000ABF03028014BF052E801EEEF4FF559220
:100125004EF592EF55914DF59122EEF4FF55B24EF5
:10013500F5B2EF55B14DF5B122EEF4FF55CA4EF5C6
:10014500CAEF55C94DF5C922C2B37E007F00E5E669
:1001550030E0070EBE00F70F80F4D2B38E828F8396
:1001650022AC82AD83AEF0FFECC39523FCED952464
:10017500FDEE9525FEEF9526FFE52FC3952BF51092
:10018500E530952CF511E531952DF512E532952ED5
:10019500F5138C828D838EF0EF120306AC82AD834E
:1001A500AEF0FFE527C39523F510E5289524F51155
:1001B500E5299525F512E52A9526F5138C828D837B
:1001C5008EF0EF120374AC82AD83AEF0FFE52B2CFD
:1001D500FCE52C3DFDE52D3EFEE52E3F8C828D8315
:1001E5008EF02275E60075E70053E6F743E6024315
:1001F500E78053E6FB53E7BF53E73F43E6802275AD
:1002050010017511017582031200E1751002751157
:10021500017582031200E1751003751101758203E2
:100225001200E17521247522FAC2B2D2B31201E897
:10023500C200C201538EFB75D7C875D6B543AF044E
:10024500438E10D2AF10010280FB12014DAE82AF7A
:1002550083E4FDFCF523F524F525F5267527D675EC
:100265002806F529F52AF52BF52CF52DF52E752FF4
:10027500DC753005F531F5328E828F838DF0EC1209
:100285000166AC82AD83AEF0FF74EE2CFC74023DCA
:10029500FDC3E49CF521E49DF52280A9FB7A20E4C9
:1002A500FCFDFEFFE5822582F582E58333F583E5D6
:1002B500F033F5F0EB33FB4017DAE98042E58225B0
:1002C50082F582E58333F583E5F033F5F0EB33FB17
:1002D500EC33FCED33FDEE33FEEF33FFEC9510ED23
:1002E5009511EE9512EF95134013EC9510FCED95D5
:1002F50011FDEE9512FEEF9513FF438201DABEEB79
:0103050022D5
:06009800E478FFF6D8FD3C
:100076007900E94400601B7A009003CA780175A0F4
:1000860000E493F2A308B8000205A0D9F4DAF275E9
:02009600A0FFC9
:10030600AAF0FBE5828510F0A4FCADF0E58385102C
:10031600F0A42DFDE435F0FEE5828511F0A42DFD57
:10032600E5F03EFEE433FFEA8510F0A42EFEE5F08C
:100336003FFFE5838511F0A42EFEE5F03FFFE58241
:100346008512F0A42EFEE5F03FFFEB8510F0A42FFA
:10035600FFEA8511F0A42FFFE5838512F0A42FFF95
:0E036600E5828513F0A42F8EF08D838C822209
:10009E007800E84400600A790175A000E4F309D8FD
:1000AE00FC7800E84400600C7900900001E4F0A3B5
:0400BE00D8FCD9FA97
:10037400FBC2D530E715D2D5E4C39582F582E49566
:1003840083F583E495F0F5F0E49BFBE51330E71780
:10039400B2D5E4C39510F510E49511F511E4951266
:1003A400F512E49513F513EB1202A130D513FBE417
:1003B400C39582F582E49583F583E495F0F5F0E442
:0203C4009B227A
:0D0069007581321203C6E582600302006655
:0403C600758200221A
:00000001FF
